:020000040800F2
:10000000980D0020D502000849580008B552000894
:1000100045580008D1040008556F0008E7020008A1
:100020000000000000000000000000003D5E00082D
:10003000D504000800000000495C0008415E00088B
:10004000F1020008F1020008F1020008F1020008C4
:10005000F1020008F1020008F1020008F1020008B4
:10006000F1020008F1020008F1020008F1020008A4
:10007000F1020008F1020008F1020008F102000894
:10008000F1020008F1020008F1020008F102000884
:10009000F1020008F1020008F1020008F102000874
:1000A000F1020008F1020008F1020008F102000864
:1000B00000000000F1020008F1020008F10200084F
:1000C000F1020008F1020008F1020008F102000844
:1000D000F1020008F1020008F1020008F102000834
:1000E000F1020008F1020008F1020008F102000824
:1000F000F1020008F1020008F1020008F102000814
:10010000F1020008F1020008F1020008F102000803
:10011000F1020008F1020008F1020008F1020008F3
:10012000F1020008F1020008F1020008F1020008E3
:10013000F1020008F1020008F1020008F1020008D3
:10014000F1020008F1020008F1020008F1020008C3
:10015000F1020008F1020008F1020008F1020008B3
:10016000F10200083D5C0008F1020008F1020008FD
:10017000F1020008F1020008F1020008F102000893
:10018000F1020008F1020008F1020008F102000883
:10019000F1020008F1020008F1020008F102000873
:1001A000F1020008F1020008F1020008F102000863
:1001B000F102000800000000F1020008F10200084E
:1001C000F102000800000000F1020008F10200083E
:1001D000F1020008F1020008F1020008F102000833
:1001E000F1020008F1020008F1020008B95200080B
:1001F0000000000000000000F1020008F102000809
:10020000F1020008F1020008F1020008F102000802
:10021000F1020008F1020008F1020008F1020008F2
:10022000F1020008F1020008F1020008F1020008E2
:10023000F102000800F002F800F03CF80AA090E893
:10024000000C82448344AAF10107DA4501D100F091
:1002500031F8AFF2090EBAE80F0013F0010F18BF22
:10026000FB1A43F001031847506E0000706E000047
:10027000103A24BF78C878C1FAD8520724BF30C8D2
:1002800030C144BF04680C607047000000230024A4
:1002900000250026103A28BF78C1FBD8520728BF96
:1002A00030C148BF0B6070471FB506F078FE1FBD18
:1002B00010B510BD00F0D2F81146FFF7F5FF06F0BB
:1002C0004BFE00F0F0F803B4FFF7F2FF03BC00F0C0
:1002D000F7F800000A4880470A480047FEE7FEE7B3
:1002E000FEE7FEE7FEE7FEE7FEE7FEE7FEE7FEE7E6
:1002F000FEE7000004480549054A064B7047000028
:10030000F95E00083502000898070020980D0020CB
:10031000980900209809002053EA020C00F0698037
:100320002DE9F04B4FF00006002B1FBFB3FA83F509
:1003300003FA05F424FA05F65E4012BF1643B2FA3A
:1003400082F502FA05F4C5F120051EBF22FA05FC6C
:1003500044EA0C04203556EA044C4FEA144418BF12
:10036000641C4FF000084FF00009904271EB030C41
:1003700039D3002919BFB1FA81F701FA07F6B0FAAB
:1003800080F700FA07F6C7F120071EBF20FA07FC26
:1003900046EA0C062037B6FBF4FCA7EB0507103F36
:1003A00007F01F0BCBF120062CFA06F60CFA0BFB1C
:1003B00044BFB3460026202FA4BF5E464FF0000B7B
:1003C0005BEA060C08BF4FF0010B19EB0B0948EB79
:1003D0000608ABFB027C06FB02CC0BFB03CCC01B6C
:1003E00071EB0C01C1E70B46024641464846BDE8A9
:1003F000F08B13B5084318BF4FF0FF300146AFF341
:100400000080BDE81C4070474FF0000200B5134665
:1004100094469646203922BFA0E80C50A0E80C5024
:10042000B1F12001BFF4F7AF090728BFA0E80C50D5
:1004300048BF0CC05DF804EB890028BF40F8042BCE
:1004400008BF704748BF20F8022B11F0804F18BF3B
:1004500000F8012B7047704770477047754600F0F1
:100460002BF8AE4605006946534620F00700854646
:1004700018B020B5FFF73EFFBDE820404FF0000662
:100480004FF000074FF000084FF0000BAC46ACE80F
:10049000C009ACE8C009ACE8C009ACE8C00921F06B
:1004A00007018D46704710B50446AFF30080204623
:1004B000BDE81040FFF707BF00487047100000205C
:1004C00001491820ABBEFEE726000200704700007D
:1004D000FEE7000070470000EFF3108072B600BF27
:1004E000FEE700002DE9F04182B0002800F09F8077
:1004F0000446806F40B12168886880000FD4886806
:10050000C00016D549E000BF204600F0F1F90020F8
:10051000E06784F87400216888688000EFD58868F7
:100520004FF6C072C5F6FF72104088608868C00040
:1005300033D44FF6C0728868C5F6FF7202F180525C
:10054000104000F18050886040F20800C2F20000C4
:10055000006842F663528009C0F23E52A0FB0202DC
:100560009009022202EB400001900198A8B100BF5F
:10057000019801380190019878B1019801380190F3
:10058000019850B1019801380190019828B1019863
:100590000138019001980028EAD18868C00009D488
:1005A000A06F40F01000A067E06F40F00100E0672E
:1005B000012000E000208A68A36F02F0040203F02B
:1005C0001003D218A26F2FD122F481720232A267D7
:1005D0008A6841F20C0ED207C4F2026E45D148F28D
:1005E000000CC4F2022C614526D041F20003C4F293
:1005F0000263994226D1DEF80020D4E901C322F03B
:100600000C024FF6FF765D1E05F00C05B34208BFE5
:100610000C252A44CA60DEF8FC224FEA9C4363F3AF
:100620009542CEF8FC2220E042F01000A0670120A5
:1006300002B0BDE8F08100BF0CF108031B68DB07C6
:1006400005D012E0AEF104031B68DB070DD10EF5F7
:100650003F73614508BF0CF54273D4F804C01A68B3
:1006600022F4701242EA0C021A60AEF10C029142BE
:1006700066D094F82420636C94F82C7043EA4232DC
:10068000A368012F42EA030242EA074206D1236B24
:100690000027CFF6FE7707EB43431A43636B23B182
:1006A000A76B03F478733B431A43CB684CF21307F0
:1006B000CFF6F0773B401A43CA608A688B6802F035
:1006C000040203F00803D21840F0CB8048F2000384
:1006D000C4F20223CB1AE76B227F18BF012307FA6B
:1006E00003F343EA8232CB6844F20307BB431A4365
:1006F000CA60E2684AB10B6F43F6FF77BB431A4307
:100700000A670A6F42F000420A6794F854300A6997
:10071000012B40F09D804FF61E03CFF600431A4098
:10072000D4E91637D4E918653A4342EA0342A36E86
:1007300032432A4342EA930242F001028AE000BFB8
:1007400094F82410227FD4E904854B0343EA8232D3
:10075000666C28F00043B8F1FF3FC8BF4FF40013A8
:100760002A4394F84070002E18BF42F480521A4376
:1007700094F82C3042EA470C012B0AD1002900F0F2
:100780008180A16F41F02001A167E16F41F001017B
:10079000E167616B29B1A26B01F4E07111434CEA8E
:1007A000010CDEF8001048F20D02CFF6FE72114087
:1007B00041EA0C01CEF80010216A21B1DEF83820A0
:1007C0001143CEF83810E16E21B1DEF83820114324
:1007D000CEF8381004F158030ECB11431943A26E22
:1007E00094F854301143012BDEF8042008BF41F087
:1007F00001014FF60243CFF2FF731A401143CEF8C6
:100800000410DEF80810D4E9122321F00701114387
:10081000CEF80810DEF80810B8F1000F21F07001D2
:1008200041EA0311CEF8081026D0B8F5001F3ED1DA
:10083000D4F88810DEF81C3001F00F020F2A29D0FE
:1008400001F0F002F02A25D163F00F012DE000BF86
:1008500022F001020A610A69236D22F070421A43F4
:100860000A6122690B6B012A23F00F0202BFA36AFF
:10087000013B1A430A6325E0DEF81C1061F00F010A
:1008800013E000BF4CF4803C616B00297FF483AF20
:1008900087E700BFA26A1C2303EB82026FF00F03FD
:1008A00002F01C0203FA02F21143CEF81C10DEF82B
:1008B00000104FF6F372C8F23F321140614509D182
:1008C0000021E167A16F012262F30101A16702B07B
:1008D000BDE8F081A06F40F0100020F00200A0679A
:1008E000E06F40F00100E067012002B0BDE8F08158
:1008F00070B5BAB0054602A8002640F600040830DC
:10090000C021CDE93866C4F20224FFF77DFD2868D6
:1009100004F5F041884201D03AB070BD4FF4004078
:1009200002904FF480402C9002A8039602F0FEFE45
:10093000002818BFFFF7D0FD40F68C40C4F20260DB
:10094000016841F480610160016801F480610191F6
:100950000199016841F004010160006835A900F0C7
:100960000400019001980420359003203690002067
:100970003790204600F06AF83AB070BDB0B5044632
:1009800000F09CF9002C04BF0120B0BD054694F88E
:100990005400022824D12068416941F004014161DA
:1009A000052084F8540000BF2168086980041FD422
:1009B00000F084F9401B0628F6D3A06D40F010002B
:1009C000A065032084F8540094F8500000064FF00E
:1009D000010001D5616F0873002184F84C10B0BD8F
:1009E0002020A0650120002184F84C10B0BD00BF7C
:1009F0004869012240F002004861042084F8540054
:100A00004FF4FE40C86084F8542094F8500000066B
:100A10004FF00000E0D5636F1A738864002184F8FA
:100A20004C10B0BDB0B5044600F048F9054640F2A0
:100A30000000C2F200000078611C18BF044400BF2F
:100A400000F03CF9401BA042FAD3B0BD2DE9F04FB5
:100A500082B00F68002F00F01F81804647F67F703C
:100A6000C0F22F0000EA9820002200234FF0010975
:100A700000260025C4F20262C4464FF0000A00902E
:100A800013E000BFC8464FF001090022C4F2026221
:100A90000F680AF1010A37FA0AF005F1020506F1BA
:100AA000080603F1040300F0F78009FA0AF417EAD4
:100AB0000400EDD09045019026D0D1F804E04EF02E
:100AC0001002122A5CD16FF0030000EA5A0203F010
:100AD0001C0442440F20D2F820E000FA04F7086911
:100AE0002EEA070700F00F00A04038431062DCF840
:100AF00000000322D1F804E0AA4090430EF0030264
:100B0000AA40104345E000BF10684F68A04307F0BB
:100B1000010746F6D07407FA0AF7C0F60004074347
:100B2000A019D0F804B06FF0030054F83AC000EAFE
:100B30005B041C2017600CEB040700EA8B04D7F859
:100B400020E00F2000FA04F20B202EEA020200FA45
:100B500004F422433A62DCF800204FEA4B070320FA
:100B600000FA07F40220A24300FA07F73A43CCF850
:100B70000020D1F804E0BEF1120F10D93EE000BF12
:100B8000DCF800000322AA4090430EF00302AA40C2
:100B90001043D346CCF80000BEF1120F2ED809FA4C
:100BA0000EF010F0061F25D04FEA4B070322C14676
:100BB000DCF8080002FA07F8CA6820EA0800BA4020
:100BC0001043CCF808000124DCF8040004FA0BF20E
:100BD00090434FEA1E1202FA0BF21043BEF1030FCC
:100BE000CCF804003FF44EAF6FEA0804C8464FF05B
:100BF000010908E0BEF1030F3FF447AF4FEA4B078E
:100C00000320B840C443DCF80C008A682040BA4096
:100C100010435FEACE02CCF80C007FF536AF42F20B
:100C2000000E2AF00300C4F2026E7044026E06F059
:100C300018070F24BC40A243009C04FA07F73A436C
:100C40000266DEF800B001984A684BEA0007D40259
:100C500058BF2BEA0007CEF80070DEF804B094020B
:100C60004BEA000758BF2BEA0007CEF80470DEF805
:100C700084B094034BEA000758BF2BEA0007CEF874
:100C80008470DEF88040D20344EA000758BF24EAAB
:100C90000007CEF88070F8E602B0BDE8F08F0000E3
:100CA000426902EA0103914341EA034181617047CD
:100CB0001823002A08BF2823C150704740F29070C3
:100CC000C2F200000068704740F20041C4F2030124
:100CD0000A68D2071CBF012070470A6822F004028C
:100CE000104308600020704740F20041C4F2030145
:100CF000086840F0010200200A6070477047000059
:100D0000B0B540F20844C4F2030454F8040C21685E
:100D100001EA0005680707D5206820F0040020607C
:100D200004206060FFF7EAFFA80758BFB0BD206845
:100D300020F00200206002206060BDE8B04000F0BA
:100D400001B800007047000040F2000040F29071CE
:100D5000C2F20000C2F2000100780A681044086084
:100D60007047000080B542F20000C4F20200016842
:100D700041F480710160032000F0A6F803F0F8F957
:100D800040F62041C4F20261096846F6B87201F0EB
:100D90000F01C0F60002515CC84040F20801C2F2E7
:100DA00000010860002000F009F800281CBF0120A5
:100DB00080BD00F02BF8002080BD000070B540F22F
:100DC0000006C2F200063178002904BF012070BD80
:100DD000044640F20800C2F200004FF47A72006844
:100DE000B2FBF1F1B0FBF1F004F0FAF80F2C4FF088
:100DF000010508D838B94FF0FF3021460022002500
:100E000000F036F87460284670BD000080B582B0EE
:100E100040F69440C4F20260016841F004010160B0
:100E2000006800F0040001900198042000F04CF8E4
:100E30006B200021002200F01BF86B2002B0BDE8FF
:100E4000804000F001B80000002848BF70474EF213
:100E50000012C1B2CEF2000242EAD10100F01F003E
:100E6000012202FA00F021F003010860704700003F
:100E700010B54EF60C5CCEF2000CDCF80030C3F37B
:100E8000022E8EF00704042C28BF0424BEF10303B5
:100E90004FF0FF3E38BF00230EFA04F4A1439940FF
:100EA0000EFA03F39A43114300F00F0200F160437E
:100EB0000901043A03F564436244002848BF02F183
:100EC0000C03197010BD00004EF60C51CEF200015B
:100ED0000A684FF6FF031A4060F30A2242F080606E
:100EE00040F0FD70086070472DE9F04F8DB0D0F8EC
:100EF0000090002044F20408CDE90100CDE9030090
:100F0000C4F20C28059041F20042D8F80000C4F267
:100F10000D22B9EB020A00F0030318BF4FF0010ADB
:100F2000012B04BF0123019300F03003102B04BFF9
:100F30000123029300F44073B3F5807F04BF0123C3
:100F4000039300F4A0230127B3F5803FC0F20017FC
:100F500005D183033B4658BF4FF00113049300F0C3
:100F6000A063B3F1807F05D18001384658BF4FF0B0
:100F700001100590D8F8043040F2020E03F003008F
:100F8000012804BF0220019003F03000102804BFA4
:100F90000220029003F44070B0F5807F04BF02206D
:100FA000039003F4A020B0F5803FC0F2010E0AD1F7
:100FB00038469F0341F200420746C4F20D227046B4
:100FC00048BF781C049003F0A060B0F1807F04D18A
:100FD0009801704648BF781C059000250B95CDE917
:100FE0000955CDE9075558F8040CD8F80060C0073A
:100FF0004FF4007304BF40F22223C0F20443F00711
:1010000006D086EA030080075ABF01250795002510
:10101000F00609D586EA0300800605D401240120E4
:101020000090089402E000BF0020009006F4407099
:10103000B0F5407F04BF01200990F0030ED586EA89
:10104000030040030AD4BC46B00358BF4FF0011C54
:10105000CDF828C0F00115D504E000BF4FF0000C1A
:10106000F0010FD586EA030040010BD4BB46B00166
:1010700058BF4FF0011BCDF82CB0D8F80440E00762
:101080000CD005E04FF0000BD8F80440E00705D085
:1010900084EA030080075CBF02250795E00607D5B8
:1010A00084EA0300800603D40226022000900896FA
:1010B00004F44070B0F5407F04BF02200990E003C3
:1010C0000AD584EA0300400306D4F446A00348BFCF
:1010D00007F1010CCDF828C0E0010AD584EA03002D
:1010E000400106D4A00148BF07F1010EF346CDF838
:1010F0002CE01068C007A9EB020003D14FF0000EEE
:1011000006E000BF13684FF0010E23F001031360E7
:1011100042F20042C4F20D221368B0FA80F4DB07F9
:1011200005D010680EF1020E20F0010010600AEBED
:101130004A0601AB03EBC6006409876808EB870722
:1011400057F8042C22F4807247F8042C58F8042C29
:10115000D2072BD153F83670002F5DD008EB8702F1
:1011600052F8047C27F0010742F8047C47683FB13D
:1011700008EB870252F8047C27F0100742F8047C41
:10118000C7683FB10122BA4358F8227027F480376C
:1011900048F82270006900283ED0012222EA0000AF
:1011A00058F8202022F0807234E000BF58F8040C78
:1011B00041F20042C4F20D2220F00100914548F8AE
:1011C000040C29D108EB850050F8042C009D42F056
:1011D000020240F8042C3DB108EB850050F8042CC5
:1011E00042F0200240F8042CBCF1000F08D001208E
:1011F00020EA0C0058F8202042F4802248F82020F1
:10120000BBF1000F08D0012020EA0B0058F8202085
:1012100042F0806248F8202004EB4400D1E9002627
:1012200003EBC00453F8303060689A4216D141F2A3
:10123000004786420546C4F20D2730D1C868E268EF
:10124000904221D1086922693546904227D158F849
:10125000040C40F0010048F8040C50E041F2004753
:1012600086423546C4F20D2719D08A68A768BA426B
:1012700003D0CA68E768BA4208D141F20047054680
:10128000C4F20D270BE000BF354608E00A69276964
:101290000546BA4241F20047C4F20D272FD108EBB0
:1012A000830050F8042C22F0010240F8042C3DB1D8
:1012B00008EB850050F8042C22F0100240F8042CB2
:1012C000A06808EB8002E06852F8043C23F48073C5
:1012D00042F8043C40B1012222EA000058F82020E4
:1012E00022F4803248F82020206940B1012222EA0D
:1012F000000058F8202022F0807248F820208868EA
:101300004FF4407308EB8000B94550F8042C08BF37
:101310004FF4807322F440721A4440F8042C486958
:10132000431EFF2B11D858F8042CC2F307429342F6
:101330000BD9002358F8042CCFF6FF7303EB0040C1
:1013400022F47F02104348F8040C58F8042C086873
:10135000D207A0F1010058F8203023F0030327D171
:101360000322B94508BF01221A4348F820204868E3
:1013700060B108EB8000302350F8042CB94508BF59
:10138000102322F020021A4340F8042CC868C2033C
:1013900026D4A8B3012222EA000058F820204FF0FA
:1013A000A06322F0E062B94508BF4FF0807324E0EB
:1013B00043F0010248F82020486840B108EB800063
:1013C000012350F8042C63F3051240F8042CC8687C
:1013D000C20329D4A8B34FF080736FF0E06427E014
:1013E000012222EA000058F820204FF4A02322F422
:1013F000E022B94508BF4FF480331A4448F8202052
:101400000869C1032AD4002842D0012121EA000042
:1014100058F820104FF0E06221F0E061B94508BFB4
:101420004FF0407227E000BF4FF480336FF4E024A8
:10143000012222EA000058F8202022401A4348F8EE
:1014400020200869C10319D410B3012121EA00004A
:1014500058F82010032262F31A6117E0012121EAF3
:10146000000058F820104FF4E02221F4E021B945A3
:1014700008BF4FF44032114408E000BF012121EAC7
:10148000000058F82010032262F3124148F820109F
:101490005FEACE7006D15FEA8E700AD400200DB0EC
:1014A000BDE8F08F386840F0010038605FEA8E7068
:1014B000F4D542F20041C4F20D21086840F0010069
:1014C000086000200DB0BDE8F08F0000F0B581B0DD
:1014D0000446FFF7F3FB216D11F00C0F4ED00546CB
:1014E0002068016849074FD4002021680A6A9206E3
:1014F0005AD5086840F002000860A66D086A8007A7
:101500001BD4002E54D0701C0ED1086A800714D44E
:10151000086A80075CBF086A5FEA80700DD4086AB9
:101520008007F2D509E000BFFFF7C8FB401B216828
:10153000B04240D8086A8007F6D502264E62A76DF1
:10154000086A80064FD5781C43D067B9FFF7B6FB11
:101550002068016A89062FD4006A8006F6D442E02A
:10156000006A80063FD5FFF7A9FB411B2068B942FE
:10157000F6D9016A8906F3D51EE000BF1020606528
:10158000012001B0F0BD00BF016821F0040101603D
:10159000E06CFFF7F3F900281ABF04216165002011
:1015A00021680A6A9206A4D40221216501B0F0BD27
:1015B000FFF784FB2168086A4FF400702065606DB6
:1015C00040F001006065012001B0F0BD086A8006AE
:1015D00009D5086A800606D5086A800644BF086AED
:1015E0005FEA8060F2D42665002001B0F0BD000003
:1015F000F0B581B015460F460446FFF75FFB216D3D
:101600000646242908D0142932D0022935D1E068B1
:10161000B0F1806F05D130E0386840F00200032857
:101620002BD12068016A890639D5691C2DD065B98E
:10163000FFF744FB2068016A89060FD4006A800620
:10164000F6D42CE0006A800629D5FFF737FB811B12
:101650002068A942F6D9016A8906F3D54FF40070D3
:101660002065606D40F001006065012001B0F0BDB3
:10167000386820F001000228D3D0102060650120D6
:1016800014E000BF016A890609D5016A890606D5FA
:10169000016A890644BF016A5FEA8161F2D40020D1
:1016A00060652046394604F0D1F808B101B0F0BDBC
:1016B000B86B48B1386802282AD0012830D090B3DE
:1016C000002001B0F0BD00BF2168086A80071AD46D
:1016D000A5B3681C0ED1086A800714D4086A800775
:1016E0005CBF086A5FEA80700DD4086A8007F2D593
:1016F00009E000BFFFF7E2FA801B2168A84220D86A
:10170000086A8007F6D5002002224A6201B0F0BDC7
:10171000206D142807D024202065002001B0F0BDE2
:10172000206D242804D104202065002001B0F0BDE4
:1017300014202065002001B0F0BD00BFFFF7BEFA05
:101740002168086A4FF400702065606D40F0010068
:101750006065012002224A6201B0F0BDB0B50446C6
:101760000068826842F00202826042F20042C4F2E3
:101770000D2290424FF0080222650FD041F2004244
:10178000C4F20D22904219D14FF20000C4F20C2095
:10179000026842F0010202600CE000BF4FF200025A
:1017A000C4F20C22D2F8003402F5806043F0010349
:1017B000C2F8003403F082FD002500E00125204638
:1017C000FFF784FE2168886820F0020228468A60BC
:1017D000B0BD0000F0B581B00446FFF76FFA002CF1
:1017E00000F08780054600206065216D11B101B0D1
:1017F000F0BD00BF204600F085F841F28830A065BA
:101800002068D4E903C2636986684CF2F401CFF61C
:10181000E00131400026CFF6FF7606EB02426FF082
:10182000FF0E666B41EA0C010EEB03231143E769DF
:101830003143194339438160C168226A21F4E021B0
:101840001143C160216BA26B42EA01410161E16B6E
:1018500041610168626821F47C510EEB0222114360
:101860000160016A89062DD4C168D4E9097621F0A6
:10187000FF01013F3943A268A369C1600168022BDF
:1018800021F0400141EA02010160D0F80811E26A4A
:1018900021F0A04141EA060141EA0201C0F8081125
:1018A000016841F00101016003D1816841F002014A
:1018B0008160E068B0F1806F1ED1012020650020BA
:1018C00001B0F0BD41F2893603E000BF016A89062C
:1018D000CAD5FFF7F3F9411B2068B142F6D3016A7C
:1018E0008906F3D54FF400702065606D40F001006B
:1018F0006065012001B0F0BD02202065002001B02C
:10190000F0BD00002DE9F043B7B00546684641F24E
:1019100000090830C021C4F20229FEF775FD2868CD
:1019200009F5002101F54131884203D037B0BDE807
:10193000F08300BF4FF0806000904FF480104FF0B4
:1019400000082C906846CDF8048001F0EFFE0028D6
:1019500018BFFEF7C1FD40F68C40C4F2026001687A
:1019600032AD41F4001101600168022701F4001159
:10197000329132994168032641F01001416041687B
:101980000A2401F0100132913299016841F00201FC
:101990000160016801F0020132913299016841F061
:1019A000100101600068294600F010003290329862
:1019B00040F201403290A9F54060CDE93378359688
:1019C0003694FFF743F84FF4805032A981E8810143
:1019D00048462946CDE93564FFF738F84FF44040D2
:1019E000CDE932070120CDE9340648462946369430
:1019F000FFF72CF837B0BDE8F08300002DE9F04385
:101A000081B015460F460446FFF758F92668B16CB9
:101A1000D6F81021C7B18046206D04281AD1306C49
:101A200001230130A064A06C60642764306863F314
:101A30001D703060E068B0F1806F11D1B16415F1B4
:101A4000010918D14EE000BF08206065012001B0F7
:101A5000BDE8F08310206065012001B0BDE8F0838F
:101A6000D6F8000110F4E06F0CBFC6F81021B16485
:101A700015F1010936D0002D64D100BF2068006A3D
:101A800010F0060F72D096F850003870206CA16CE0
:101A9000471C481E2764A064A06C0028EED1206873
:101AA000016A89073AD4002D60D0B9F1000F2BD11B
:101AB000016A890732D4016A89075CBF016A5FEA5B
:101AC00081712BD4016A8907F2D527E096F850007E
:101AD0003870206CA16C471C481E2764A064A06C61
:101AE0000028DCD02068016A11F0060FEED1016AEF
:101AF00011F0060FEAD1016A11F0060FE6D1016A72
:101B000011F0060FEFD0E1E7FFF7D8F8A0EB0801DE
:101B10002068A9422DD8016A8907F5D502214162C2
:101B20002165002001B0BDE8F08300BF96F85000A9
:101B30003870206CA16C471C481E2764A064A06C00
:101B40000028ACD02068006A10F0060FEED100BF6C
:101B5000FFF7B4F8A0EB08012068A94209D8006A91
:101B600010F0060FF4D0276CE0E700BFFFF7A6F8EF
:101B70002068006A4FF400702065606D40F001003D
:101B80006065012001B0BDE8F0830000012201681A
:101B9000C0F80025002280F8F424886940F0006035
:101BA0008861486D40F0805040F0030200204A6593
:101BB0007047000070470000704700007047000049
:101BC00070470000704700002DE9F04F89B00568AC
:101BD0000646284605F03CF810B109B0BDE8F08F84
:101BE000306805F063F80028F7D0D5F80808C0F38E
:101BF0000D213068C6F8FC1405F058F8014630682D
:101C0000890703D5416901F00201416105F50067CB
:101C100005F04CF801463068C906089604953CD595
:101C2000816921F0100181612C6AC4F3434004F002
:101C30000F0506281AD0022829D147F6F07014EAB9
:101C4000000824D005EBC5004FEA181406EB800904
:101C50000498D9F88C12224605F02CF8D9F88C0299
:101C600000EB1810C9F88C0208E000BF049806F2D7
:101C7000C441082205F01EF8C4F30A1405EBC500A0
:101C800006EB8000D0F89C122144C0F89C1230680A
:101C9000816941F010018161049D039705F006F808
:101CA000000340F1F1800898006804F0DDFF00288F
:101CB00000F0EA80064608984FF4306800F2C4410C
:101CC00000F527744FF0000B07911BE005EB0800AF
:101CD000022181605FEA8A6042BF05EB0800202193
:101CE00081605FEA8A4042BF05EB08004FF4005173
:101CF00081600BF1010B760808F1200804F124043F
:101D000000F0C280F007F4D008985FFA8BF9006801
:101D1000494604F0C3FF8246C00763D005EB0800C4
:101D200001218160089F386808EB0001036C8A6814
:101D30003F69012F28D1170734D4970600F19C8002
:101D400012F0280F4ED143F20B07C4F65477BB4272
:101D500002D312F400422ED154F8042C0969BBF1CD
:101D6000000F6FF3DF41A2EB0101216035D1089B29
:101D7000D3F89422002A00F08580D3F88C0208441E
:101D8000C3F88C0229E000BF43F20B07C4F6547776
:101D9000FF37BB4216D110040DD4900644BF20205B
:101DA00088601AE043F20B00C4F65470834219D3E2
:101DB00012F4004016D04FF4004088605FEA0A70C9
:101DC00013D439E0BBF1000F07D10899D1F8941270
:101DD00019B90021079A04F01BFE08984946FFF73D
:101DE000EFFE00BF5FEA0A7026D505EB0800082168
:101DF0008160089843F20B020068C4F65472056CC7
:101E000040448168571EBD4205D911F400411CBFF2
:101E10004FF400418160089800F0B0FCBD42049D81
:101E20000AD908980069012806D10898079A00681D
:101E3000012104F0EDFD00BF5FEACA6042BF05EB7F
:101E40000800102181605FEA8A707FF543AF6869FE
:101E5000000604D50399486840F48060486014F88F
:101E60001D0C01287FF432AF002004F81D0C0898E7
:101E7000494600F079FB29E7202088605FEA0A7074
:101E8000B3D4D9E70121A5E7DDF820B0DBF80000E5
:101E900004F00CFF400340F1E380DBF8000004F0A5
:101EA000DBFE002800F0DC80824605F51060029021
:101EB0000BF2C4400027019006E000BF5FEA5A0A17
:101EC00007F1010700F0CC805FEACA70F6D0DBF8BA
:101ED0000000F9B2079104F0CFFE029E0446C0074D
:101EE0000AD1200732D4E00636D460063AD4A007DF
:101EF0003ED42006E2D554E0039A07F00F00516B60
:101F0000012303FA00F021EA000006EB47115063B9
:101F10008B60DBF81000012812D107EBC7000BEB38
:101F20008000D0E912121144C1644FB9DBF85400AB
:101F300030B9DBF80000019A012104F069FD00BF0F
:101F400007995846FFF73AFE2007CCD506EB471015
:101F500008218160E006C8D506EB4710102181609A
:101F60006006C4D506EB471040218160A007C0D5AC
:101F70002846394604F002FE07EBC7000BEB800051
:101F800010F83F1F012905D100210170079958461B
:101F900000F0E8FA06EB47100221816020067FF589
:101FA0008DAF07EBC7000BEB8002914659F8541F29
:101FB000C84658F8080F8142FFF480AFDBF8006094
:101FC000934606EB471C06965BF8483FDCF818E999
:101FD0000D1A9D4238BF2B461FFA8EF50333B5EB21
:101FE000930F29D30CF5106102F14C05059100BF48
:101FF000D9F8001081421FD9DBF80040089A081A6E
:10200000A0422968167C38BF0446DDE90602A3B267
:10201000009604F067FF2868D8F800102044286074
:1020200008190599C8F800008969E21C89B2B1EB6A
:10203000920FDDD2D9F80010DDF820B0049D814266
:102040003FF63CAF069B07F00F00D3F8341801228F
:1020500002FA00F021EA0000C3F834082EE700BFBE
:10206000DBF8000004F022FE00280FD4DBF80000AB
:10207000DDF80C8004F01AFE000528D4DBF800001F
:1020800004F014FE000133D43EE000BFDDF80C8004
:10209000D8F8040020F00100C8F804009BF8F4040C
:1020A000012807D100208BF8F40458460021FFF7DF
:1020B00081FD02E0584600F05DFBDBF8000041695D
:1020C00001F00041416104F0F1FD0005D6D5D8F8DA
:1020D0000800C0071CBF584600F052FBDBF80000A8
:1020E000416901F40061416104F0E0FD00010BD59C
:1020F000DBF80000416901F0006141619BF8F414D4
:1021000061B1584600F03CFBDBF8000004F0CEFD66
:10211000C00415D4DBF8000017E100BF01218BF8E3
:10212000F414406D0121C0F38300CBF8F804584645
:10213000FFF740FDDBF8000004F0B8FDC004E9D56E
:10214000D8F80400102120F00100C8F80400DBF8E2
:10215000000004F013FDDBF80400002800F0C1804B
:10216000411E032900F0030C02D200216CE000BFE5
:1021700020F0030E05F536634FF6A0564FF6C05516
:102180004FF6E0544FF6006000214FF67F37CFF650
:10219000FF76CFF6FF75CFF6FF74CFF6FF7000BF66
:1021A000A3F5187297609A59043122F400129A51DB
:1021B00043F8587C53F8602C8E4522F4001243F803
:1021C000602C53F8602C42F0006243F8602CA3F5B9
:1021D000107297605A5922F400125A5143F8387C11
:1021E00053F8402C22F4001243F8402C53F8402CB2
:1021F00042F0006243F8402CA3F5087297601A5928
:1022000022F400121A5143F8187C53F8202C22F4BF
:10221000001243F8202C53F8202C42F0006243F8BF
:10222000202CA3F5007297601A5822F400121A505D
:102230009F601A6822F400121A601A6842F0006265
:102240001A6003F18003ABD1049DBCF1000F48D0AC
:1022500005F5106000EB41124FF67F334F0193609C
:10226000C65905F5306202EB411526F40016C65139
:10227000AB60D659BCF1010F26F40016D651D659E1
:1022800046F00066D6512CD04F1C00EB47167D015E
:10229000B360465902EB471726F400164651BB605F
:1022A0005359BCF1020F23F400135351535943F017
:1022B0000063535115D0023100EB41174FF67F36C2
:1022C0004B01BE60C75802EB411127F40017C750FD
:1022D0008E60D05820F40010D050D05840F00060EC
:1022E000D050D8F81C0040F00110C8F81C00DBF8F2
:1022F000300048B1D8F8840040F00B00C8F88400E2
:1023000008F1440009E000BFD8F8140042F22B01A4
:102310000843C8F8140008F1100001680BF2C44229
:1023200041F00B010160D8F8000020F4FE60C8F80D
:102330000000DBF800009BF8101004F069FBDBF8EC
:102340000000416901F48051416104F0AFFC014695
:10235000DBF8000089041AD504F07AF8DBF80000F5
:1023600004F068FCDBF80040CBF80C0001F08AFEBA
:102370009BF80C200146204604F024FD584600F04E
:10238000F7F9DBF80000416901F40051416104F004
:102390008DFC000706D4DBF8000004F087FC000683
:1023A0000DD435E0584600F0E7F9DBF8000041694C
:1023B00001F00801416104F079FC000628D5049978
:1023C000886920F080008861DBF8040002281FD3B0
:1023D000012440F2A32504E00134844205F12405E0
:1023E00016D21BF805100129F6D104F00F0000EBFE
:1023F000C0000BEB80022006DBF8000002F13C017C
:1024000058BF02F51F7104F031FBDBF80400E3E76D
:10241000DBF8000004F04AFCC0024FD4DBF80000F7
:1024200004F044FC049D800240F17E80DBF804103F
:1024300002292AD305F5326001390BF529720123EF
:1024400005E000BF2030013902F124021DD00768E9
:102450001678012EF6D1B7F1FF3FF3DCDBF8FC6410
:1024600007F4803706F00106B742EBD102F8013CD1
:10247000AF6947F08007AF616F693F06E2D4D8F8D3
:10248000040040F40070C8F80400DBF80000416963
:1024900001F40011416104F009FC40004AD558469E
:1024A000FFF78AFBDBF80000416901F080414161E0
:1024B00004F0FCFB40077FF590AB42E0DBF8040042
:1024C000022825D304990BF1640501F51264012655
:1024D000012705E001372034874205F1240517D292
:1024E00021682A78012AF5D1B1F1FF3FF2DC07F02B
:1024F0000F0000EBC00005F8016C0BEB8001DBF86E
:1025000000003C3104F0B2FADBF80400E2E700BF5F
:10251000DBF80000416901F48011416104F0C6FB61
:10252000049D80023FF582AFDBF8000004F0BEFBA3
:102530004000B4D4DBF8000004F0B8FB40077FF59E
:102540004CABDBF800004468610704D55846FFF740
:1025500039FBDBF8000041682143416009B0BDE868
:10256000F08F000070470000704700002DE9F04F29
:102570008BB0002800F082800446056890F8BD0406
:1025800028B9002084F8BC04204600F08FF803200E
:1025900084F8BD04E86BC0055CBF002020612068A2
:1025A00004F02EFA206804F11C0A0A90D4E90C50B9
:1025B00004F1040E9AE8C0079EE80E58CDE90850D1
:1025C00003A880E8C0030A988DE80058CDF81CA045
:1025D00003F04EFF00284ED120680021002504F0B2
:1025E000BFFB616841B304F154000122002300BF26
:1025F00000F8183CDFB2013300F8172C20F8107CEB
:1026000000F8145C40E9035540F8245BDFB2B9429E
:10261000EED804F525700022002300BF00F8183C16
:10262000013300F8172C00F8142C40E9032240F87D
:10263000242BDFB2B942F1D8A06822680A90D4E90D
:102640000C50D4E9033704F1140E04F1240A9EE877
:1026500040589AE80007CDE9085002A880E80058E1
:1026600010460A9ACDE90076CDE90589CDF81CA07F
:1026700003F08CFF30B1022084F8BD0401200BB0C0
:10268000BDE8F08F002084F83800012084F8BD04F4
:10269000606A012804BF2046FFF778FA206803F03B
:1026A00065FF00200BB0BDE8F08F000070B5BAB038
:1026B000054602A800240830C021C4F20224FDF718
:1026C000A3FE286804F50031884201D03AB070BDFD
:1026D0004FF480100026029002A8039601F026F81D
:1026E000002818BFFDF7F8FE40F68C45C4F20265DD
:1026F000286835A940F001002860286800F0010032
:10270000359035984FF4C05035900220CDE936060B
:10271000032038900A2039902046FEF797F9286860
:1027200040F480402860286800F4804001900198BF
:10273000A868400710D4A86840F00400A860A86802
:1027400000F004000190019800F0F8F8A86820F06B
:102750000400A86002E000BF00F0F0F8492000216A
:102760000022FEF785FB4920FEF76EFB3AB070BDF4
:10277000704700007047000070470000704700007D
:102780007047000040F20801C2F200010A6841F2FD
:102790005973CDF2B71340F63C01C4F20261A2FBBB
:1027A000032351F8342C00284FEA93301CD042F018
:1027B0000202023041F8342C0A68920732D4012810
:1027C00030D00A6892072FD402282DD00A689207C9
:1027D0002CD403282AD00A689207A0F104022CD432
:1027E00004281046E8D128E022F00202023041F825
:1027F000342C00BF0A6892071AD5012818D00A683D
:10280000920717D5022815D00A68920714D5032815
:1028100012D00A689207A0F104020ED504281046CF
:10282000E8D10AE0421E08E0821E06E0C21E04E073
:10283000421E02E0821E00E0C21E0020002A08BFE5
:102840000320704740F60C0CC4F2026CDCF8302018
:1028500002F4403282425FD0DCF80020B0F5803FC5
:1028600022F4E02242EA000240F2080088BF42F46B
:102870008022CCF80020C2F20000006841F25972B8
:10288000CDF2B712A0FB0202900B0346DCF8001059
:10289000B3F1FF3218BF012209041ED4591C1CD009
:1028A000DCF80010002B1A4618BF0122090414D4CA
:1028B0009BB1DCF800105A1E18BF012209040CD489
:1028C000012B0AD0DCF800109A1E18BF012209045F
:1028D00003D4022BA3F10403D8D112B3DCF83010D7
:1028E000090417D4411C15D0DCF83010090412D4A7
:1028F00088B1DCF83010090410D401280ED0DCF8BF
:102900003010021F090402D402281046E6D1901CA0
:1029100010B906E0013020B10020704701380028CE
:10292000FAD103207047000040F61000C4F20260A4
:10293000016841F0005101607047000040F610004E
:10294000C4F20260016841F08051016070470000EC
:1029500040F63C00C4F20260006800F4403070476A
:10296000B0B540F6284EC4F2026EDEF80C50DEF828
:102970000030DEF80010DEF80020DEF8104002F033
:102980001002C4F3CC04C1F3032104FB02F203F0F0
:10299000030300EE102A6FF35F25B8EE400A012B07
:1029A00001F1010C66D0032B18BF022B62D101EE9E
:1029B00010CADEF80C10B8EE411A9FED4D2A6FF3E5
:1029C0005F2182EE011A02EE101A9FED4A3AB8EE2C
:1029D000422A20EE030A30EE020AB7EE002A30EE59
:1029E000022ADEF8001021EE020AC90371D5DEF8D2
:1029F0000C10B7EE002AC1F3462101EE101AB8EE12
:102A0000411A31EE021A80EE011ABCEEC11A11EE23
:102A1000102A0260DEF80010890360D5DEF80C1081
:102A2000B7EE002AC1F3064101EE101AB8EE411AC2
:102A300031EE021A80EE011ABCEEC11A11EE102A14
:102A40004260DEF8001049034FD5DEF80C10B7EEF7
:102A5000002AC1F3066101EE101AB8EE411A31EEF8
:102A6000021A80EE010ABCEEC00A10EE101A816054
:102A7000B0BD00BF5EF8201C090203D4DEF8CC1004
:102A80000B0401E05EF8203C47F25002190FC0F63B
:102A9000000202EB810102EE10CA91ED001AB8EEBD
:102AA000422AB8EE411A9FED133A81EE022A01EE56
:102AB000105A20EE030AB8EE411A30EE010AB7EEC2
:102AC000001A30EE011ADEF8001021EE020AC903E6
:102AD0008DD400220260DEF8001089039ED400220B
:102AE0004260DEF800104903AFD400218160B0BD20
:102AF0000024744B00000039B0B540F62C4EC4F2EF
:102B0000026EDEF81050DEF80030DEF80010DEF85D
:102B10000020DEF8144002F01002C4F3CC04C1F32C
:102B2000032104FB02F203F0030300EE102A6FF30B
:102B30005F25B8EE400A012B01F1010C66D0032B92
:102B400018BF022B62D101EE10CADEF81010B8EEE9
:102B5000411A9FED4D2A6FF35F2182EE011A02EEBA
:102B6000101A9FED4A3AB8EE422A20EE030A30EEE0
:102B7000020AB7EE002A30EE022ADEF8001021EE3B
:102B8000020AC90371D5DEF81010B7EE002AC1F3AE
:102B9000462101EE101AB8EE411A31EE021A80EE0B
:102BA000011ABCEEC11A11EE102A0260DEF8001004
:102BB000890360D5DEF81010B7EE002AC1F3064194
:102BC00001EE101AB8EE411A31EE021A80EE011A27
:102BD000BCEEC11A11EE102A4260DEF80010490363
:102BE0004FD5DEF81010B7EE002AC1F3066101EEF2
:102BF000101AB8EE411A31EE021A80EE010ABCEE4C
:102C0000C00A10EE101A8160B0BD00BF5EF8241C2F
:102C1000090203D4DEF8C8100B0401E05EF8243C7E
:102C200047F25002190FC0F6000202EB810102EEDA
:102C300010CA91ED001AB8EE422AB8EE411A9FED83
:102C4000133A81EE022A01EE105A20EE030AB8EE82
:102C5000411A30EE010AB7EE001A30EE011ADEF822
:102C6000001021EE020AC9038DD400220260DEF8B2
:102C7000001089039ED400224260DEF80010490350
:102C8000AFD400218160B0BD0024744B0000003936
:102C9000B0B540F6304EC4F2026EDEF81450DEF8E5
:102CA0000030DEF80010DEF80020DEF8184002F0F8
:102CB0001002C4F3CC04C1F3032104FB02F203F0BD
:102CC000030300EE102A6FF35F25B8EE400A012BD4
:102CD00001F1010C66D0032B18BF022B62D101EE6B
:102CE00010CADEF81410B8EE411A9FED4D2A6FF3AA
:102CF0005F2182EE011A02EE101A9FED4A3AB8EEF9
:102D0000422A20EE030A30EE020AB7EE002A30EE25
:102D1000022ADEF8001021EE020AC90371D5DEF89E
:102D20001410B7EE002AC1F3462101EE101AB8EED6
:102D3000411A31EE021A80EE011ABCEEC11A11EEF0
:102D4000102A0260DEF80010890360D5DEF8141046
:102D5000B7EE002AC1F3064101EE101AB8EE411A8F
:102D600031EE021A80EE011ABCEEC11A11EE102AE1
:102D70004260DEF8001049034FD5DEF81410B7EEBC
:102D8000002AC1F3066101EE101AB8EE411A31EEC5
:102D9000021A80EE010ABCEEC00A10EE101A816021
:102DA000B0BD00BF5EF8281C090203D4DEF8C410D1
:102DB0000B0401E05EF8283C47F25002190FC0F600
:102DC000000202EB810102EE10CA91ED001AB8EE8A
:102DD000422AB8EE411A9FED133A81EE022A01EE23
:102DE000105A20EE030AB8EE411A30EE010AB7EE8F
:102DF000001A30EE011ADEF8001021EE020AC903B3
:102E00008DD400220260DEF8001089039ED40022D7
:102E10004260DEF800104903AFD400218160B0BDEC
:102E20000024744B0000003980B584B0024643F69C
:102E3000FF7300209B1A70EB0103C0F26F80D2F188
:102E40007F0370EB0103C0F2B980013A61F1000128
:102E5000D2F13F034FF0000373EB0101C0F03D845A
:102E6000DFE812F040002C023B04CE013B043B049F
:102E70003B04EA013B043B043B043B043B043B04AE
:102E80003B0448023B043B043B043B043B043B043F
:102E90003B043B043B043B043B043B043B043B043A
:102EA0003B0406023B043B043B043B043B043B0461
:102EB0003B043B043B043B043B043B043B043B041A
:102EC0003B043B043B043B043B043B043B043B040A
:102ED0003B043B043B043B043B043B043B043B04FA
:102EE0003B04660240F60840C4F20260D0F8D810F5
:102EF00001F00301012900F01B83002900F0128377
:102F000050F8082C520502D5022900F0C483D0F8ED
:102F1000E800033910F0020000F0F0BB4FF6FF7339
:102F2000C0F23F039B1A70EB010375DB4FF6FF7392
:102F3000C0F201039B1A4FF0000C7CEB010380F2FE
:102F400093804FF6FF73C0F20F039B1A7CEB0103D3
:102F5000C0F2FC8082F400330B4300F00D8282F457
:102F60008022114340F0B98340F60840C4F2026069
:102F7000D0F8E810D0F8E82001F44071920703D5AA
:102F8000B1F5807F00F03881D0F8E820120103D538
:102F9000B1F5007F00F01D8250F8080CB1F5407FBC
:102FA00000F400324FF0000004BF4AF22010C0F2DB
:102FB0000700002A08BF104604B080BD40F2FF336E
:102FC0009B1A4FF0000C7CEB010380F2718040F6FD
:102FD000FF739B1A7CEB0103C0F2D68082F48063FE
:102FE0000B4300F0E38182F40062114340F07583EB
:102FF00040F60840C4F20260D0F8E01011F44071CD
:1030000000F0B082D0F8E820120140F18281B1F5E1
:10301000807F00F0DE817CE16FF07E439B1A4FF0F1
:10302000000C7CEB010380F273806FF078439B1AF5
:103030007CEB0103C0F2C68082F000730B4300F00A
:10304000D38182F08062114340F0478340F608400C
:10305000C4F20260D0F8DC10C1F30151DFE811F0D6
:1030600068028202BC02CA0282F480430B4300F071
:10307000C98182F400430B4300F0E48182F4803282
:10308000114340F02A8340F60841C4F20261D1F8AE
:10309000DC0000F00702042A00F2A8824BF6803020
:1030A000DFE812F0E401CA017E011B03E20200BF67
:1030B00082F080030B4300F0DF8182F480730B43C6
:1030C00000F0FC8182F40072114340F0068340F668
:1030D0000840C4F20260D0F8E01011F4406100F042
:1030E0004182D0F8E820120103D5B1F5806F00F0DD
:1030F000708150F8082C520503D5B1F5006F00F02F
:10310000CA82D0F8E800A1F5406110F00200F5E2B3
:1031100082F480030B4300F0E58182F400030B434B
:1031200000F0F48182F08072114340F0D68240F6C4
:103130000840C4F20260D0F8D810C1F30141DFE8C2
:1031400011F0DF01F7015102110200BF82F4801378
:103150000B4300F0F38182F40012114340F0BD8272
:1031600040F60840C4F20260D0F8DC10490400F1D7
:103170006381D0F8D810C1F38161DFE811F0EB0171
:103180003B022D02F30100BF82F480530B4300F099
:10319000F18182F40052114340F09F8240F60841D1
:1031A000C4F20261D1F8DC00C0F34212042A00F23A
:1031B0001D824BF68030DFE812F0350239013F0105
:1031C00090023B0282F000630B4300F0F18182F039
:1031D0008052114340F0818240F60841C4F20261FE
:1031E000D1F8E000D1F8E820920700F4004240F165
:1031F0000782002A40F004824FF4004004B080BDF2
:1032000040F60840C4F20260D0F8D81001F0300156
:10321000102900F08D81002900F0728150F8082CEF
:10322000520502D5202900F03682D0F8E800303966
:1032300010F0020062E200BF40F60840C4F20260F3
:10324000D0F8D81001F0C001402900F071810029A8
:1032500000F0568150F8082C520502D5802900F064
:103260001A82D0F8E800C03910F0020046E200BF30
:1032700040F60841C4F20261D1F8E00000F0070214
:10328000012A00F05581002A00F0268151F8080C2F
:10329000400502D5022A00F0FE81D1F8E80080073F
:1032A00001D5032AA8D051F8080C80064FF0000081
:1032B00040F11382042A00F0D7810EE240F6084064
:1032C000C4F20260D0F8D81001F00C01042900F01B
:1032D0002F81002900F0148150F8082C520502D5E6
:1032E000082900F0D881D0F8E8000C3910F002006D
:1032F00004E200BF40F60840C4F20260D0F8D810E3
:1033000001F44071B1F5807F00F01281002900F0D6
:10331000F78050F8082C520503D5B1F5007F00F076
:10332000BA81D0F8E800A1F5407110F00200E5E1A3
:1033300040F60841C4F20261D1F8D80000F44062BE
:10334000B2F5806F00F0F480002A00F0D98051F8C7
:10335000080C400503D5B2F5006F00F09C8151F8D0
:10336000080C80064FF0000040F1B781B2F5406FC5
:1033700000F07A81B1E100BF40F60841C4F2026179
:10338000D1F8E000C0F30242042A00F22F814BF68C
:103390008030DFE812F06B0051000500A2016901E6
:1033A00001A8FFF775FC029804B080BD40F6084004
:1033B000C4F20260D0F8D81011F4402100F0A080CF
:1033C000D0F8E820120140F15F81B1F5802F40F084
:1033D0005B81D0F8E800C0004FF0FA0058BF4FF40E
:1033E000FA4004B080BD00BF40F60840C4F202605D
:1033F000D0F8E010C1F3C101DFE811F06E009A00CF
:10340000F400B40040F60841C4F20261D1F8DC00D7
:10341000C0F30222042A00F2E9804BF68030DFE894
:1034200012F0010105000B005C01070101A8FFF784
:103430002FFC019804B080BD01A8FFF791FA019814
:1034400004B080BD40F60841C4F20261D1F8E0004A
:10345000C0F30232052A00F23381DFE812F00700E0
:1034600069002B0131013101410100BF04B0BDE809
:10347000804000F007BE00BF40F60841C4F2026180
:10348000D1F8D80000F44052B2F5805F50D0002A45
:1034900036D051F8080C400503D5B2F5005F00F0B6
:1034A000FA8051F8080C80064FF0000040F11581B9
:1034B000B2F5405F00F0D8800FE100BF40F6084051
:1034C000C4F20260D0F8E010C1F38111DFE811F01E
:1034D000040030008A00EC0004B0BDE8804000F039
:1034E00027BE00BF40F60841C4F20261D1F8D800FF
:1034F00000F44042B2F5804F1AD0002A40F0A48078
:1035000004B0BDE8804000F0D3BD00BF40F60840E5
:10351000C4F20260D0F8D810C1F30151DFE801F025
:103520000208622204B0BDE8804000F0E1BD00BFA7
:1035300004B0BDE8804000F01BBE00BF40F608406C
:10354000C4F20260D0F8D810C1F38161DFE801F065
:103550000252440A50F8080C46F600418004C0F2BA
:10356000DC216CE00168090202D4D0F8EC0080E0B4
:1035700000687FE040F60841C4F20261D1F8DC0047
:1035800051F8082C00F40060520502D5002800F024
:10359000828051F8081C00281CBF41F20020C0F2B4
:1035A0007A0001F48061002908BF084604B080BD9C
:1035B00040F60840C4F20260D0F8D81050F8080C69
:1035C000800301F0407001D5002864D0B0F1007F85
:1035D00028D0B0F1807F09D101A8FFF7C1F9029886
:1035E00004B080BD50F8080C24E000BF002004B0F7
:1035F00080BD00BF01A8FFF77FFA029804B080BD2C
:10360000D1F8E80000014FF0000066D5002A64D030
:10361000D1F8E800C0004FF0FA0058BF4FF4FA406C
:103620005BE000BF01A8FFF767FA019804B080BD16
:1036300051F8080C42F200414005C0F2F40101EAE1
:10364000E07004B080BD00BF51F8080C400502D501
:10365000B2F5004F1FD051F8080C80064FF0000063
:103660003BD5B2F5404F38D1086800021AD4D1F8E2
:10367000EC000004C0F3036047F25001C0F6000103
:1036800051F8200004B080BD50F8082C52052FD509
:10369000B1F5002F2CD142F20040C0F2F40004B08A
:1036A00080BD00BF0868E5E7016809022ED4D0F8A4
:1036B000EC001AE001A8FFF71FFA039804B080BDE0
:1036C00051F8082C920300F4E04242F20040C0F2AC
:1036D000F4001DD5B2F5405F1AD104B080BD00BF23
:1036E000086800021ED4D1F8EC0000041BE000BF03
:1036F000D0F8E800A1F5402110F00200B1FA81F104
:103700004FEA511118BFC80304B080BD00680AE039
:1037100051F8081CB2F5804F18BF002001F48061F9
:1037200041E700BF0868000FA6E700002DE9F04F51
:1037300081B00446006840F6E04BC107C4F2026B5A
:1037400020D1810728D4410730D4010738D4C106DD
:1037500040D4810648D4410650D4010658D4C1054E
:1037600060D4410268D4810570D4410579D4010543
:1037700000F1828040F628488004C4F2026800F11B
:103780008A80B4E0DBF80010226D21F003011143C0
:10379000CBF800108107D6D5DBF80010626D21F060
:1037A0000C011143CBF800104107CED5DBF8001017
:1037B000A26D21F030011143CBF800100107C6D5EE
:1037C000DBF80010E26D21F0C0011143CBF80010CE
:1037D000C106BED5DBF80010226E21F44071114302
:1037E000CBF800108106B6D5DBF80810626E21F028
:1037F00007011143CBF808104106AED5DBF80010E5
:10380000A26E21F440611143CBF800100106A6D549
:10381000DBF80010E26E21F440511143CBF80010A8
:10382000C1059ED5DBF80810226F21F0C0011143BD
:10383000CBF80810410296D5DBF80010626F21F436
:1038400040411143CBF8001081058ED5DBF80810FC
:10385000A26F21F440611143CBF8081041057FF5B8
:1038600086AFDBF80010E26F21F440211143CBF862
:10387000001001057FF57EAFDBF80810D4F880203A
:1038800021F440711143CBF8081040F62848800419
:10389000C4F202682BD5D4F890004FEA70110429C5
:1038A0000CD8DFE801F0030D171D1D0004F108001E
:1038B00002F0CCF90646D8B908E000BF012617E0AF
:1038C00004F12C0002F03EFA064688B9D4F89000C4
:1038D00006E000BFD8F8001041F48031C8F80010AD
:1038E000DBF8041021F0E0010843CBF804000026C7
:1038F0006078400602D4374638E000BFD4F8940020
:103900004FEA302004280BD83746DFE800F0030FD9
:103910001B14140004F1080002F098F90AE000BF3B
:10392000012701256078000624D449E004F12C0029
:1039300002F008FA07463D4677B16078000619D4D0
:103940003EE000BFD8F80000374640F48030C8F8A9
:103950000000002F3D46F0D1DBF80400D4F89410AD
:1039600020F4E06008430027CBF804003546607877
:10397000000625D5D4F8A8004FEA3030052807D82E
:1039800002280BD03E468FB1A078C0071CD139E089
:1039900001270126A078C00716D133E004F1080002
:1039A00002F054F90746002F3E46EDD1DBF808003F
:1039B000D4F8A81020F4E04008430027CBF8080012
:1039C0002E46A078C0071DD0D4F88800042800F245
:1039D000A981DFE810F00B000500AB010B000B0024
:1039E000D8F8000040F48030C8F800003D4657B9D0
:1039F000DBF80400D4F8881020F007000843002703
:103A0000CBF804003546A07880071FD5D4F88C0089
:103A10004FEA3040042800F29381DFE810F00B00F9
:103A2000050095010B000B00D8F8000040F4803031
:103A3000C8F80000B94657B9DBF80800D4F88C1074
:103A400020F4E02008430027CBF80800A946A0781E
:103A5000400701D44D465DE05BF84C0C10F0040AC1
:103A60000BD15BF84C0C40F004004BF84C0C5BF8AD
:103A70004C0C00F00400009000984FF60045CFF683
:103A8000FF7558F8050040F0010048F80500FDF703
:103A900015F9064658F80500C00707D1FDF70EF9DD
:103AA000801B0228F6D9032703252AE03D4647BBA1
:103AB000DBF8100010F4407018D0D4F8C010884221
:103AC00011D0DBF81000DBF8101020F4407041F446
:103AD0008031CBF81010DBF8101021F48031CBF8D6
:103AE0001010CBF81000C00740F03881DBF8100050
:103AF000D4F8C01020F44070084300274D46CBF89E
:103B00001000BAF1000F05D15BF84C0C20F0040056
:103B10004BF84C0CA078C0061BD5D4F8A0004FEA97
:103B2000B060032800F2E880DFE800F00702EA074F
:103B300004F1080002F08AF80746394657B9DBF865
:103B40000000D4F8A01020F0406008430027CBF814
:103B5000000029462068020320D5D4F8982032B10D
:103B6000B2F5005F18BFB2F5805F40F0D5803E46E9
:103B700067B1C10415D481021ED4010230D4C10141
:103B800039D4810142D440014BD471E0DBF80430D8
:103B9000002723F440531A43CBF804200E46C104F7
:103BA000E9D5DBF80410D4F89C2021F4006111431E
:103BB000CBF804108102E0D5D4F8A410B1F5804F01
:103BC00005D1D8F8002042F48032C8F80020DBF894
:103BD000042022F480421143CBF804100102CED518
:103BE000DBF80010D4F8B42021F440111143CBF8D5
:103BF0000010C101C5D5DBF80010D4F8B82021F4BD
:103C000040311143CBF800108101BCD5DBF808101E
:103C1000D4F8BC2021F018011143CBF80810400162
:103C200026D5D4F8B000B0F5401F0FD0B0F5001F76
:103C300005D1D8F8000040F40030C8F800003D4637
:103C400067B1E078000717D43EE000BF04F1080038
:103C500001F0FCFF0746002F3D46F2D1DBF80400DF
:103C6000D4F8B01020F4401008430027CBF804002B
:103C70003546E078000727D5D4F8840058B1B0F174
:103C8000007F11D0B0F1807F30D1D8F8000040F42F
:103C90000030C8F8000077B1E078C00618D4384684
:103CA00001B0BDE8F08F00BF04F1080001F0CEFFC5
:103CB0000746002FF0D1DBF80000D4F8841020F084
:103CC00040700843CBF800002F46E078C006E6D5E8
:103CD000DBF80800D4F8AC1020F400400843CBF81F
:103CE0000800384601B0BDE8F08F00BF0127E0783A
:103CF000C006D4D5ECE700BF012701212AE700BFA9
:103D0000D8F8000040F40030C8F80000002F394611
:103D10007FF420AF13E700BF01270126C1047FF520
:103D20002AAF3EE7012701256DE600BF04F12C0014
:103D300002F008F80746002F3D467FF464AE57E6D0
:103D400001274FF0010982E604F12C0001F0FAFF8F
:103D50000746002FB9467FF47AAE6DE6FCF7AEFF5A
:103D600006460327032500BFDBF8100080073FF558
:103D7000BDAEFCF7A3FF801B41F288318842F3D926
:103D8000BFE600002DE9F04F81B0002800F01C8153
:103D900042F20008C4F202080446D8F800000D46BA
:103DA00000F00F0088420DD2D8F8000020F00F007C
:103DB0002843C8F80000D8F8000000F00F00A8421F
:103DC00040F00281206840F62049C106C4F2026931
:103DD0000DD56169D9F8042002F07002914206D92C
:103DE000D9F8042022F070021143C9F80410010729
:103DF0000FD52169D9F80020702303EA12129142ED
:103E000007D9D9F8002022F4E06242EA0111C9F88A
:103E1000001041070DD5E168D9F8002002F07002CA
:103E2000914206D9D9F8002022F070021143C9F856
:103E3000001081070DD5A168D9F8002002F00F020B
:103E4000914206D9D9F8002022F00F021143C9F897
:103E50000010C00774D1206881070DD5A168D9F87A
:103E6000002002F00F02914206D2D9F8002022F081
:103E70000F021143C9F80010D8F8001001F00F012B
:103E8000A9420DD9D8F8001021F00F012943C8F834
:103E90000010D8F8001001F00F01A94240F0948002
:103EA00041070DD5E168D9F8002002F07002914277
:103EB00006D2D9F8002022F070021143C9F8001090
:103EC00001070FD52169D9F80020702303EA1212E7
:103ED000914207D2D9F8002022F4E06242EA0111AF
:103EE000C9F80010C0060DD56069D9F8041001F0BA
:103EF0007001884206D2D9F8041021F070010843FD
:103F0000C9F8040000F034F9D9F8001046F6B87288
:103F100001F00F01C0F60002525C40F20401C2F24F
:103F20000001096840F2080320FA02F2C2F200031D
:103F300008461A6001B0BDE8F04FFCF73FBF00BF74
:103F4000606840F61C47C4F2026768B3022831D0AB
:103F5000032835D1D9F8740010F0040A0BD1D9F830
:103F6000740040F00400C9F87400D9F8740000F03F
:103F7000040000900098FCF7A1FE4FF6F03BCFF64E
:103F8000FF7B57F80B10490322D4BAF1000F05D17B
:103F9000D9F8740020F00400C9F8740057F81C0C1C
:103FA000800111D5606822E057F81C0C40070BD542
:103FB00000201CE057F81C0C800317D4012042E0BD
:103FC00057F81C1C490512D4012001B0BDE8F08F40
:103FD000064600BF57F80B004004D6D4FCF76EFE2F
:103FE000801B02284FF00300F4D92CE0022039682E
:103FF00021F0030108433860FCF760FE6168064663
:10400000032941F2883A28D0022934D071B900BF7F
:10401000386810F00C0F3FF41EAFFCF74FFE801B0A
:1040200050454FF00300F3D90DE000BF386800F0B1
:104030000C0004283FF40FAFFCF740FE801B5045F6
:104040004FF00300F2D901B0BDE8F08FFCF736FE67
:10405000801B50454FF00300F5D8386800F00C0085
:104060000C28F3D1F7E600BFFCF728FE801B504573
:104070004FF00300E7D8386800F00C000828F3D1AF
:10408000E9E6000080B500F073F840F62041C4F284
:104090000261096846F6B87201F00F01C0F600022D
:1040A000515CC84040F20801C2F20001086080BDC6
:1040B00080B500F05DF840F62041C4F202610A6864
:1040C00046F6B87302F00F02C0F600039A5CD040C7
:1040D00040F20802C2F200021060096846F6C87297
:1040E000C1F30211C0F60002515CC84080BD00005F
:1040F00080B500F03DF840F62041C4F202610A6844
:1041000046F6B87302F00F02C0F600039A5CD04086
:1041100040F20802C2F200021060096846F6C87256
:10412000C1F30221C0F60002515CC84080BD00000E
:1041300080B500F01DF840F62041C4F202610A6823
:1041400046F6B87302F00F02C0F600039A5CD04046
:1041500040F20802C2F200021060496846F6C872D6
:10416000C1F30211C0F60002515CC84080BD0000DE
:1041700040F62841C4F2026151F80C0C10F00C0218
:10418000086815D00C2A04BF00F0030001280FD0E6
:1041900051F80C0C9FED350A00F00C00042842F297
:1041A0000040C0F2F4001DD0082A18BF002019E01A
:1041B00051F8200C000205D4D1F8CC00C0F3033034
:1041C00003E000BF51F8200C000F47F25003C0F687
:1041D000000353F82000002A00EE100A18BF002048
:1041E000B8EE400A0C2A18BF7047D1F800C00A6820
:1041F0000B68C2F3032208690132C008DB069FED99
:104200001C1A00EAE3705FEA8C7358BFB0EE401AE4
:1042100000EE102A6FF35F30B8EE400A9FED153ABA
:1042200081EE000A01EE100AC868B8EE411A6FF379
:104230005F2002EE100A21EE031AB8EE422AC86887
:1042400031EE021AB7EE002AC0F3066031EE021A10
:10425000013020EE010A01EE100AB8EE411A80EE9C
:10426000010ABCEEC00A10EE100A70470000000000
:104270000024744B000000392DE9F04381B0002880
:1042800000F0FC8340F694490446C4F2026959F8F0
:10429000780C59F86C1C227840F6004600F00C07A8
:1042A000D006C4F2026601F003081FD42078C007CC
:1042B00075D0082F6CD00C2F08BFB8F1030F67D052
:1042C0006068B0F5803F00F0BB82B0F5A81F00F039
:1042D000AF82B0F5A02F40F0C782306840F4802054
:1042E0003060306820F48010A9E200BFF7B10C2FD5
:1042F00008BFB8F1010F19D0E1693068002900F05A
:10430000A98140F001003060FCF7D8FC054600BFF1
:104310003068400700F1DE81FCF7D0FC401B02282A
:104320004FF00300F4D900F03EBD00BF30684007F5
:1043300003D5E069002800F0A183656AB068000237
:104340005ABFD9F860000004B06800F070408542A0
:1043500040F25481002F40F00483D9F80000400758
:1043600000F1E482D9F8000040F00400C9F8000030
:10437000D9F8000000F0040000900098FEF7E8FA79
:10438000D9F8001021F00401C9F80010D0E200BFF4
:104390003068800303D56068002800F06F832078C0
:1043A00080072DD5042F1BD00C2F08BFB8F1020FAA
:1043B00016D0E1683068002900F0188240F480705F
:1043C0003060FCF77BFC0546306840050FD4FCF7F5
:1043D00075FC401B02284FF00300F5D900F0E3BC48
:1043E0003068400503D5E068002800F0478359F89D
:1043F000840C216920F4F81040EA014049F8840C4B
:104400002078000752D42078400700F1A58020785A
:10441000800600F107812078000600F12D812078C8
:10442000400600F19D81A56B002D00F06E8459F8C7
:10443000780C00F00C000C2840F0468259F86C1CF7
:1044400059F8600C012D00F01983E26B01F00303B1
:10445000934240F01383226CC1F30323013A934249
:1044600040F00C83C1F30331626C914240F006834B
:10447000A26C01466FF35F21013A914240F0FE8247
:10448000E16CC0F3462201398A4240F0F782216D87
:10449000C0F3064201398A4240F0F082616DC0F3F8
:1044A00006600139884200F03084E7E2D9F8000064
:1044B00010F004080BD1D9F8000040F00400C9F84E
:1044C0000000D9F8000000F00400009000984FF6BA
:1044D0002847CFF6FF77F059C00711D1F05940F0C7
:1044E0000100F051FCF7EAFB054600BFF059C00798
:1044F00006D1FCF7E3FB401B0228F7D91BE100BF04
:104500006069D9F85C10002800F0CE80A06901F045
:104510008052904200F0368301F04062B2F1006FA9
:1045200000F0AC82490140F12683D9F85C0020F00C
:10453000A050C9F85C00FCF7C1FB0546D9F85C0047
:10454000000140F11783FCF7B9FB401B02284FF034
:104550000300F3D900F027BCD9F8000010F00408DC
:104560000BD1D9F8000040F00400C9F80000D9F8D8
:10457000000000F00400009000984FF62847CFF6A6
:10458000FF77F059C00713D1F05940F00100F05106
:10459000FCF794FB054600BFF059C00708D1FCF7B3
:1045A0008DFB401B02284FF00300F5D900F0FBBB48
:1045B000A068C10740F0A280D9F85C10002821F063
:1045C0000101C9F85C10D9F85C1021F00401C9F8A8
:1045D0005C1040F0A180FCF771FB054641F2883782
:1045E000D9F85C00800740F19182FCF767FB401B23
:1045F000B8424FF00300F3D9D5E300BFB068B5F17E
:10460000404F40F40000B060B06820F0704040EAD5
:104610000500B060C0F09480F068216A20F01F00AF
:104620000843E9E1E16A3068002900F0CD8040F4F8
:1046300080503060FCF742FB054600BF30688004C4
:104640003FF5E9AEFCF73AFB401B02284FF00300B0
:10465000F4D9A8E320F001003060FCF72FFB0546F9
:10466000306840077FF522AEFCF728FB401B02288C
:104670004FF00300F4D996E3216B3068002900F075
:10468000118140F480403060FCF718FB054600BF04
:10469000306800043FF5C3AEFCF710FB401B022856
:1046A0004FF00300F4D97EE321F0A050C9F85C007C
:1046B000FCF704FB054600BFD9F85C00000140F19F
:1046C0007782FCF7FBFA401B02284FF00300F3D976
:1046D00069E300BFB06840F40000B060B168606A90
:1046E00021F070410143B0F1404FB160C0F09080C3
:1046F000F068216A20F01F00084337E2D9F85C1007
:10470000400705D541F00400C9F85C00D9F85C10F9
:1047100041F00100C9F85C00FCF7D0FA054641F20F
:10472000883700BFD9F85C00800733D4FCF7C6FA9D
:10473000401BB842F6D9032001B0BDE8F08300BFAA
:10474000B5F1FF3F40F32E81F168206AB5F1804F4B
:10475000C0F04E8121F4F84141EA80204CE100BFD5
:10476000606B002800F03081B06840F40000B06059
:10477000B06820F07061D4E90902B0F1404F41EA1D
:104780000201B160C0F08681F068216A20F01F004C
:104790000843F5E2A168D9F85C00090600F1B2808F
:1047A00020F0800041F28837C9F85C00D9F85C003D
:1047B000000540F1B081FCF781FA401BB8424FF090
:1047C0000300F3D9EFE200BF20F480503060FCF723
:1047D00075FA0546306880047FF51DAEFCF76EFA69
:1047E000401B02284FF00300F4D9DCE220F4807073
:1047F0003060FCF763FA0546306840057FF500AE8F
:10480000FCF75CFA401B02284FF00300F4D9CAE21F
:10481000B0F1FF3F40F37281F268216AB0F1804F3E
:10482000C0F0A08122F4F84040EA81209EE100BF60
:10483000306840F480203060306840F48010306090
:10484000306840F480303060FCF738FA054600BF2D
:10485000306880033FF5A3ADFCF730FA401B6428B5
:104860004FF00300F4D99EE23168002821F4803132
:104870003160316821F480213160316821F4801188
:104880003160E1D1FCF71AFA0546306880037FF504
:1048900086ADFCF713FA401B64284FF00300F4D9EF
:1048A00081E200BF20F480403060FCF707FA054643
:1048B000306800047FF5B3ADFCF700FA401B022816
:1048C0004FF00300F4D96EE2306820F08070306061
:1048D000FCF7F4F9022D05460AD13068800140F159
:1048E0007381FCF7EBF9401B0228F6D923E700BFE0
:1048F0003068800140F10082FCF7E0F9401B02289B
:10490000F6D918E740F0800041F28837C9F85C001A
:10491000D9F85C00000500F1FE80FCF7CFF9401BE0
:10492000B8424FF00300F3D93DE200BFFEF710F8A4
:1049300020F48031B1F5003F3CD10021B5F1805F1A
:1049400038BF012142F20000C4F20200026822F0E6
:104950000F020A440260006800F00F00884240F035
:104960008D80B06840F40000B060B168606A21F0EA
:1049700070410143B0F1404FB16005D3F068216A46
:1049800020F01F00084399E0B0F1FF3F7ADDF268A4
:10499000216AB0F1804FC0F08D8022F4F84040EAE7
:1049A00081208BE0F068216A20F4787040EA4110A1
:1049B00022E000BF0021B1EB157F40F0B780B0F5D9
:1049C000803F5BD10321BDE7306820F010003060EC
:1049D000FCF774F9054600BF306880067FF523AD0B
:1049E000FCF76CF9401B02284FF00300F4D9DAE120
:1049F00021F4782141EAC030002FF0605FD1D9F86E
:104A00000000400714D4D9F8000040F00400C9F8B1
:104A10000000D9F8000000F0040000900098FDF7B5
:104A200097FFD9F8001021F00401C9F8001001E047
:104A3000FDF78EFF20F48031B1F5003F14D1002145
:104A4000B5F1805F38BF012142F20000C4F20200DC
:104A5000026822F00F020A440260006800F00F00B2
:104A600088422CD00AE000BF0021B1EB157F6BD14A
:104A7000B0F5803F02D10321E6E700BF012001B07D
:104A8000BDE8F083F068216A20F4787040EA4110B4
:104A900014E000BFB0F1FF3F40F33C81F268216AAF
:104AA000B0F1804FC0F0688122F4F84040EA8120E4
:104AB00066E100BF22F4782040EAC130F060FFF7E1
:104AC00057FB59F8741C46F6B87201F00F01C0F696
:104AD0000002515C40F2080220FA01F140F20400A9
:104AE000C2F200000068C2F200021160FCF766F931
:104AF000002840F05881FFF7D9BB00BFF068216A59
:104B000020F4787040EA411030E000BFD9F85C0032
:104B1000000600F10781B8F1000F7FF478ACD9F8F6
:104B2000000020F00400C9F8000070E4B5F1005F57
:104B300040F20E8100284FF000017FF403AFB5F181
:104B4000405F98BF0121FDE6B5F1005F40F20A81A8
:104B500000284FF000017FF477AFB5F1405F98BFB8
:104B6000012171E722F4782040EAC130F060FFF7BC
:104B70009DBB00BFA069D9F85C1021F080510843AB
:104B8000C9F85C00D9F85C0040F08060C9F85C00AE
:104B9000FCF794F8054600BFD9F85C00000107D483
:104BA000FCF78CF8401B02284FF00300F4D9FAE020
:104BB000B8F1000F7FF427ACD9F8000020F0040012
:104BC000C9F80000FFF71FBCD9F8000010F0040C72
:104BD0000BD1D9F8001041F00401C9F80010D9F840
:104BE000001001F00401009100994FF60C48CFF637
:104BF000FF7856F808E056F808304FF6037723F4AC
:104C0000802346F8083059F86C3CD4E91102BB43C4
:104C1000D4E90F756FF0FF013B43184301EB052109
:104C20004FF47E43084349F86C0C59F8600C00219E
:104C3000C8F280010840511EE26C4FF4FE0503EB00
:104C40004222236D6FF35F2105EB0343656D92B242
:104C50004FF0FE4707EB0565084403F4FE031044DC
:104C600005F0FE451844284449F8600C59F86C0CCE
:104C70004FF6F87120F0100049F86C0C59F85C0CF4
:104C8000E26D884340EAC20049F85C0C59F86C0CAC
:104C900040F0100049F86C0C59F86C0CA16D20F034
:104CA0000C0008435FEA4E3149F86C0C05D556F804
:104CB000080040F4802046F80800BCF1000F05D140
:104CC000D9F8000020F00400C9F8000059F86C0C75
:104CD00040F4802049F86C0C306840F080703060FF
:104CE000FBF7ECFF0446306880010ED4FBF7E6FFCB
:104CF000001B0228F7D91EE559F86C0C4FF6FC7121
:104D0000CFF6F871084049F86C0C002001B0BDE8FE
:104D1000F08300BFF068216A20F4787040EA411007
:104D20002EE000BFD9F85C0041F2883720F0800007
:104D3000C9F85C00D9F85C0000057FF5ECAEFBF724
:104D4000BDFF401BB8424FF00300F3D92BE000BF7A
:104D5000B5F1805F2AD10221B0F5803F08BF012163
:104D6000F0E500BFB5F1805F22D10221B0F5803FB0
:104D700008BF012168E600BF22F4782040EAC13074
:104D8000F060306840F010003060FBF797FF054698
:104D9000306880063FF547ABFBF790FF401B0228C9
:104DA0004FF00300F4D901B0BDE8F0830121C9E55B
:104DB000012149E690F88920012A1CBF0120704793
:104DC00090F88820012A4FF0020215D080F889203F
:104DD0000268136823F001031360D1E900C38968F6
:104DE00003F4702343EA0C031943D161012100222B
:104DF00080F8891080F888201046704770B5002828
:104E00003ED00446006842F2000C40F08053C5F2E8
:104E1000006C00216345A16206D1E1680F2984BFBF
:104E2000012070BD01E000BFE168E36B012202EBED
:104E300053120831C90802FB01F142F20002C4F228
:104E40000062904206D0604506D1082984BF012047
:104E500070BD01E0082913D843F60002C4F2000235
:104E600090420BD043F20002C4F20102904205D0FE
:104E700043F20002C5F20102904203D110290BD97E
:104E8000012070BD43F60002C5F20002904203D13A
:104E9000102984BF012070BD94F8890028B9002032
:104EA00084F88800204600F057F8022084F8890032
:104EB0002068D4F818C00268BCF1806F22F00102AB
:104EC0000260826802F4F81E10D1636833B1B3F552
:104ED000800F0BD1A36B4BB904E000BFA36BB3F100
:104EE000805F03D1036843F480530360E369A16AE0
:104EF000E26B43EA0E031943D4E903351143194326
:104F0000D4E9012E8160D4E90D16636A1943314357
:104F100063692943256A1943E36C29431943A36C48
:104F200041EA0E01A66D1943E36D3143266E194324
:104F3000314341EA0C0111435202C16005D5C168F9
:104F4000626D21F000411143C16000200121C4F8CD
:104F50008C0084F8891070BD10B5B8B0044668465E
:104F60000830C021FBF750FA206843F20001C4F278
:104F70000101884202D038B010BD00BF4FF40000DC
:104F80000024009068460194FEF7D0FB002818BF6B
:104F9000FBF7A2FA40F68C40C4F20260816941F44A
:104FA00080518161816901F48051339133990168A5
:104FB00041F001010160006833A900F00100339065
:104FC0003398E02033900220CDE934043690052058
:104FD00037900020C4F20220FBF738FD38B010BD36
:104FE000411E0020B0EB116F1CBF012070474EF234
:104FF0001002CEF2000251604EF62351CEF20001B3
:10500000F0230B70072190601160704790F88010BA
:10501000012904BF022070472421C0F884100268CF
:105020001168136823F00103136021F0005300217D
:10503000416613602022C0F8842080F88010084662
:1050400070470000B0B590F88020012A04BF02200C
:10505000B0BD2422C0F884200268D0F864E0D2F801
:1050600000C01368BEF1000F23F0010313609368C2
:1050700023F0606341EA0301916019D0936891685D
:1050800047F2A80E490FC0F6000E47F2B0051EF811
:105090000140C0F60005C3F34263695CE400B4FB61
:1050A000F1F11EF80340EB5CE500B5FBF3F301E022
:1050B00001210123A0F86A102021A0F86830C2F86D
:1050C00000C0C0F88410002180F880100846B0BDF0
:1050D000B0B590F88020012A04BF0220B0BD242280
:1050E000C0F884200268D0F864E0D2F800C01368E9
:1050F000BEF1000F23F001031360936823F06043B7
:1051000041EA0301916019D09368916847F2A80EB3
:10511000490FC0F6000E47F2B0051EF80140C0F678
:105120000005C3F34263695CE400B4FBF1F11EF8CF
:105130000340EB5CE500B5FBF3F301E00121012343
:10514000A0F86A102021A0F86830C2F800C0C0F8AA
:105150008410002180F880100846B0BDB0B582B040
:10516000B0B10446D0F8840028B9002084F880004B
:10517000204600F059F82420C4F884002068016813
:1051800021F001010160204600F050FF012803D109
:10519000012002B0B0BD00BFA06A00281CBF20469D
:1051A00000F0D0FE2068416821F4904141608168A0
:1051B00021F02A018160016841F0010101600020B5
:1051C000C4F88C00FBF77AFD216805460A681207CF
:1051D0000CD56FF07E4C20464FF4001100222B4678
:1051E000CDF800C001F028F878B9216808684007B8
:1051F0000ED56FF07E4C20464FF4800100222B46E6
:10520000CDF800C001F018F810B1032002B0B0BD15
:105210002020C4F88400C4F888000020E06684F8E8
:10522000800002B0B0BD000010B5B8B004466846BA
:105230000830C021FBF7E8F8206843F60001C4F20B
:105240000101884202D038B010BD00BF002001909B
:10525000012000906846FEF769FA002818BFFBF7A6
:105260003BF940F68C40C4F20260816941F4804110
:105270008161816901F4804133913399016841F082
:1052800001010160006833A900F0010033903398F8
:105290004FF4C06033900220CDE9340003203690F3
:1052A000072037900020C4F20220FBF7CFFB38B074
:1052B00010BD0000FEE70000FBF722BD026842F0CF
:1052C00002020260D1E9002141EA02214160016845
:1052D00021F00201016070472DE9F0470C6894FA53
:1052E000A4F2B2FA82F234FA02F34BD04FF0010882
:1052F0004FF0030C4FF00F0E05E000BF0C680132B9
:1053000034FA02F33ED008FA02F314EA030AF5D0A5
:105310009AFAAAF3B3FA83F94E6804684FEA490788
:105320000CFA07F5EB43AC4306FA07F52C43751E60
:10533000012D046005D88C688568BC401D402C4355
:1053400084600C69C568BC402B402343022EC360B7
:10535000D4D15FFA8AF34FEA1A2595FAA5F5002B06
:105360004FF020034C6908BFB5FA85F908BF242324
:10537000C5584FEA89060EFA06F7BD43B4402C43E0
:10538000C450BBE74A68013A012A06D8C968426896
:1053900001FB04F1A243114341600020BDE8F08706
:1053A00080B540F2700048F20001C2F20000C4F281
:1053B00002210022C0E90012042181610121C0E91B
:1053C00002220261027780F82420816280F82C207A
:1053D00080F84020826642640265C26380F85420EF
:1053E000FBF780F8002808BF80BDBDE88040FBF7D0
:1053F00073B800002DE9F04F87B04FF0000B40F676
:105400008C40CDE905BBC4F20260016840F200495E
:1054100041F0040101600168C4F2022901F00401B5
:10542000019101990168A9F5806441F001010160D1
:105430000168012201F001010191019901684FF019
:10544000010841F002010160016801F002010191CF
:105450000199016841F020010160016801F020011B
:1054600001910199016841F010010160016801F0AA
:10547000100101910199016841F008010160016882
:1054800001F0080101910199016841F040010160BA
:105490000068042100F04000019001982046FBF7CD
:1054A00007FC09F5805A50464FF480510122FBF762
:1054B000FFFB09F5006738464FF440410122FBF736
:1054C000F7FB09F5A050042100220090FBF7F0FB48
:1054D00009F58065284680210022FBF7E9FB484654
:1054E000A0210022FBF7E4FB4FF4005002900020C3
:1054F000C1F2210002AECDE9030B28463146FBF78D
:10550000A5FA0420CDE90208032005902046314683
:10551000CDF81080FBF79AFA4FF4805002A981E889
:10552000010950463146CDF81480FBF78FFA4FF44D
:10553000804448463146CDE9024BCDF810B0FBF728
:1055400085FA02A880E810090224384631460594FD
:10555000FBF77CFA4FF4004002A981E801093846C4
:105560003146CDF81480FBF771FA042002A981E8D6
:10557000010900983146CDF814B0FBF767FA80278F
:1055800028463146CDE90278CDE90484FBF75EFA7E
:10559000202002A981E8010948463146CDF814B01F
:1055A000FBF754FA48463146CDE90278CDE9048448
:1055B000FBF74CFA07B0BDE8F08F000080B5002083
:1055C000FBF782FB002818BFFAF786FFFBF78CFB7E
:1055D000002808BF80BDBDE88040FAF77DBF00000D
:1055E00010B588B040F2FC0041F20042C2F2000067
:1055F0000124C4F20D2200212023C0E90024082246
:10560000CDE90611CDE90411CDE90211CDE9001172
:10561000C0E90211C0E90434C0E90611C0E9081468
:10562000C0E90A11C0E90C12C0E90E11FCF7D2F86A
:10563000002818BFFAF750FF4FF00110059040F214
:10564000FC00C2F2000002A941F2883202940794E1
:10565000FBF74AFC002818BFFAF73EFF0020CDE90F
:10566000000040F2FC00C2F200006946FCF776F848
:10567000002818BFFAF730FF08B010BD70B584B02D
:1056800040F2646043F2000500244FF480010722D9
:10569000C2F200004FF08063C4F201054FF0805663
:1056A0000394CDE90144C0E90051C0E90242C0E9D8
:1056B0000444C0E90636C0E90844C0E90A42C0E92A
:1056C0000D44C463C0E91244C0E91444C0E916445F
:1056D0000466FFF793FB002818BFFAF7FDFE40F2BF
:1056E0006460C2F2000001A9CDE901460394FFF70E
:1056F00061FB002818BFFAF7EFFE04B070BD000090
:105700002DE9F04188B0002640F68C40CDE90566D1
:10571000CDE90366C4F202604169002441F400014E
:1057200041614169C4F2022401F400010791079923
:10573000016801AD41F00201016001684FF40048C9
:1057400001F00201079107990168032741F0010167
:1057500001600068294600F001000790079804F5F1
:105760008060CDF8048002970596FFF7B5FD2046CE
:105770002946CDE901870596FFF7AEFD08B0BDE8E3
:10578000F081000080B540F2F46043F600034FF46E
:10579000E131C2F200000022C4F201034FF00C0C10
:1057A000C0E90031C0E90222C0E9042CC0E90622A8
:1057B000C0E908228262FFF7D1FC002818BFFAF77F
:1057C0008BFE40F2F460C2F200000021FFF780FC83
:1057D000002818BFFAF780FE40F2F460C2F2000021
:1057E0000021FFF72FFC002818BFFAF775FE40F2E2
:1057F000F460C2F20000FFF709FC002808BF80BD7A
:10580000BDE88040FAF768BE80B540F2581000212C
:10581000C2F20000C4F204210622C0E900120221F3
:105820000022C0E90612C0E90822C0E90A22026388
:10583000FCF79CFE002808BF80BDBDE88040FAF759
:105840004BBE0000FEE70000FEE700002DE9F04F30
:10585000036882681F6827F040571F6072B10A68AA
:10586000032A14D0022A1BD103F5C07E03F5C472AB
:1058700003F5C87C03F5D0741AE000BF1A684F68BE
:1058800022F080023A431A600A68032AEAD103F53B
:10589000A07E03F5A47203F5A87C03F5B07407E0BD
:1058A00003F5807E03F5847203F5887C03F590741C
:1058B000D1E912563543CEF80050CD6A6DB18D6AEC
:1058C00001F12C072560DEF80040E0CF24F47C14C1
:1058D0002C433C433443CEF8004014684D6C24F014
:1058E0001F042C4314608A6B0AB10C6804B3CD68A2
:1058F000CC6925B3DEF80060D1E90487B4B3D1E9FF
:10590000089A002A4AD04CF2C00BCFF2FF0B086C69
:1059100006EA0B063043384340EA080040EA0A0032
:1059200040EA0900104328432043CEF8000051E02C
:10593000CC6B013C1C64CD68CC69002DDAD1002C05
:1059400050D0DEF80060D1E90807002A50D04CF2B0
:10595000C005CFF2FF0505F13F0C0D6C06EA0C0601
:105960002E4337433843104346E000BF002A4BD054
:105970004CF2C000CFF2FF0000F57C500B6C3040C1
:105980001843384340EA080010432843CEF800008B
:105990008868CCF800000020BDE8F08F43F63F7225
:1059A00026EA02023A4342EA080242EA0A0242EACC
:1059B00009022A432243CEF80020C06AB0F1805F7A
:1059C00008D14869082805D1DEF8000040F00060E1
:1059D000ABE700BF8868CCF80000886998640020B5
:1059E000BDE8F08F082141650120BDE8F08F00BFC0
:1059F00026F47C523A4310432043CEF800008869D5
:105A000098640020BDE8F08F26F03F023A4342EA56
:105A100008022A43CEF80020C06AB0F1805FB7D1F7
:105A200048690828B4D1DEF8000040F00060ADE716
:105A30002DE9F04F95B04FF49850002703901020B7
:105A4000CDE9050706204FF001094FF4807A4FF4A5
:105A5000805440F2000807900A20CDE90177CDF884
:105A60001090CDF820A0CDE909470C97CDE90F772C
:105A7000CDE91177CDE91377C4F202284FF00A0B74
:105A8000FAF7D0FF404604210022FBF711F90A2063
:105A9000FAF7C8FF40F2FC06C2F2000601AD30463C
:105AA00029464FF0FF32FBF7A3FD0A20FAF7BAFFB1
:105AB000404604210122FBF7FBF80A20FAF7B2FF67
:105AC000404604210022FBF7F3F80A20FAF7AAFF68
:105AD000032003904FF080700F9008201290304602
